:100000000C94A7000C94C4000C94C4000C94C4007D
:100010000C94C4000C94C4000C94C4000C94C40050
:100020000C94C4000C94C4000C94C4000C94C40040
:100030000C94C4000C94C4000C94C4000C94C40030
:100040000C94C4000C94C4000C94C4000C94C40020
:100050000C94C40000407A10F35A00A0724E1809A4
:100060000010A5D4E80000E87648170000E40B541F
:10007000020000CA9A3B000000E1F50500008096EE
:100080009800000040420F000000A0860100000020
:10009000102700000000E8030000000064000000DA
:1000A00000000A00000000000100000000002C76A3
:1000B000D888DC674F0823DFC1DFAE59E1B1B796BE
:1000C000E5E3E453C63AE651997696E8E6C284261B
:1000D000EB898C9B62ED407C6FFCEFBC9C9F40F2F7
:1000E000BAA56FA5F490055A2AF75C936B6CF96773
:1000F0006DC11BFCE0E40D47FEF520E6B500D0ED38
:10010000902E0300943577050080841E080000209F
:100110004E0A000000C80C333333330F986E12833D
:100120001141EF8D2114893BE65516CFFEE6DB1811
:10013000D1844B381BF77C1D901DA4BBE4242032D6
:1001400084725E228100C9F124ECA1E53D271124CF
:100150001FBECFE5D8E0DEBFCDBF10E0A0E6B0E027
:10016000E0ECFEE102C005900D92AA37B107D9F785
:1001700021E0AAE7B0E001C01D92AE3EB207E1F770
:100180000E949F0B0C945E0F0C940000672B09F0EB
:10019000DFC0009721F48BB38E7F8BBB0895813035
:1001A000910521F48BB38D7F8BBB0895823091052F
:1001B00021F48BB38B7F8BBB08958330910521F4A1
:1001C0008BB3877F8BBB08958430910521F48BB36B
:1001D0008F7E8BBB08958530910521F48BB38F7D85
:1001E0008BBB08958630910521F48BB38F7B8BBB3D
:1001F00008958730910521F48BB38F778BBB0895D9
:100200008A30910521F488B38E7F88BB08958B30A6
:10021000910521F488B38D7F88BB08958C309105BA
:1002200021F488B38B7F88BB08958D30910521F42C
:1002300088B3877F88BB08958E30910521F488B3F9
:100240008F7E88BB08958F30910521F488B38F7D10
:1002500088BB08958031910521F488B38F7B88BBDA
:1002600008958131910521F488B38F7788BB089573
:100270008431910521F485B38E7F85BB0895853146
:10028000910521F485B38D7F85BB08958631910555
:1002900021F485B38B7F85BB08958731910521F4C7
:1002A00085B3877F85BB08958831910521F485B397
:1002B0008F7E85BB08958931910521F485B38F7DAB
:1002C00085BB08958A31910521F485B38F7B85BB69
:1002D00008958B31910521F485B38F7785BB0895FF
:1002E0008E31910521F482B38E7F82BB08958F31C8
:1002F000910521F482B38D7F82BB089580329105F0
:1003000021F482B38B7F82BB08958132910521F461
:1003100082B3877F82BB08958232910521F482B334
:100320008F7E82BB08958332910521F482B38F7D45
:1003300082BB08958432910521F482B38F7B82BB06
:100340000895859709F0E1C082B38F7782BB089545
:10035000009721F48BB381608BBB089581309105A8
:1003600021F48BB382608BBB08958230910521F418
:100370008BB384608BBB08958330910521F48BB3DC
:1003800088608BBB08958430910521F48BB3806124
:100390008BBB08958530910521F48BB380628BBBB4
:1003A00008958630910521F48BB380648BBB08954A
:1003B0008730910521F48BB380688BBB08958A3018
:1003C000910521F488B3816088BB08958B30910535
:1003D00021F488B3826088BB08958C30910521F4A4
:1003E00088B3846088BB08958D30910521F488B36B
:1003F000886088BB08958E30910521F488B38061B0
:1004000088BB08958F30910521F488B3806288BB42
:1004100008958031910521F488B3806488BB0895E4
:100420008131910521F488B3806888BB08958431B7
:10043000910521F485B3816085BB089585319105CF
:1004400021F485B3826085BB08958631910521F43E
:1004500085B3846085BB08958731910521F485B308
:10046000886085BB08958831910521F485B380614A
:1004700085BB08958931910521F485B3806285BBE0
:1004800008958A31910521F485B3806485BB089570
:100490008B31910521F485B3806885BB08958E3139
:1004A000910521F482B3816082BB08958F3191055B
:1004B00021F482B3826082BB08958032910521F4D9
:1004C00082B3846082BB08958132910521F482B3A6
:1004D000886082BB08958232910521F482B38061E5
:1004E00082BB08958332910521F482B3806282BB7E
:1004F00008958432910521F482B3806482BB08950B
:10050000859719F482B3806882BB0895CF93C82F72
:1005100080FF07C061E070E082E290E00E94C600C8
:1005200006C060E070E082E290E00E94C600C1FF79
:1005300007C061E070E083E290E00E94C60006C060
:1005400060E070E083E290E00E94C600C2FF07C056
:1005500061E070E084E290E00E94C60006C060E0C6
:1005600070E084E290E00E94C600C3FF07C061E033
:1005700070E085E290E00E94C60006C060E070E096
:1005800085E290E00E94C600CF910895CF93C82FD6
:1005900060E070E08AE190E00E94C6008C2F0E942B
:1005A000860261E070E08BE190E00E94C60089EF76
:1005B00090E00197F1F700C0000060E070E08BE18F
:1005C00090E00E94C60089EF90E00197F1F700C02B
:1005D0000000CF910895CF93813061F480E8860FB9
:1005E000C62FCF7082958F700E94C6028C2F0E94FA
:1005F000C6020DC0823059F480EC860FC62FCF7032
:1006000082958F700E94C6028C2F0E94C602CF91E5
:10061000089580E00E94860287E893E10197F1F750
:1006200000C0000083E00E94C60281EE94E00197C2
:10063000F1F700C0000083E00E94C6028DEB9AE053
:100640000197F1F700C0000083E00E94C60282E03B
:100650000E94C60282E00E94C60288E00E94C60292
:1006600080E00E94C6028CE00E94C60280E00E94E8
:10067000C60286E00E94C6020895CF93DF93D82F6A
:10068000DF70C82FC07F61E070E08AE190E00E94D7
:10069000C6008C2F82958F700E94860261E070E008
:1006A0008BE190E00E94C60089EF90E00197F1F79E
:1006B00000C0000060E070E08BE190E00E94C600A6
:1006C00089EF90E00197F1F700C000008D2F0E94A4
:1006D000860261E070E08BE190E00E94C60089EF45
:1006E00090E00197F1F700C0000060E070E08BE15E
:1006F00090E00E94C60089EF90E00197F1F700C0FA
:100700000000DF91CF9108950F931F93CF93DF9354
:100710008C01C0E0D0E003C00E943D032196F801A7
:10072000EC0FFD1F80818111F7CFDF91CF911F91D9
:100730000F91089560E070E038C0AB01440F551F81
:10074000FA01EE0FFF1FEE0FFF1FEE0FFF1FE41B5E
:10075000F50BEC50FF4F85E090E0958784879B0177
:10076000220F331F220F331F260F371F265F3F4FE5
:10077000318320839783868313821282CB01880F73
:10078000991F880F991F880F991F840F951F8C59E7
:100790009F4F9583848381E090E0918780878AE1F1
:1007A00090E0938782876F5F7F4F6A3071052CF2EC
:1007B00081E090E09093F7008093F600089520E0A8
:1007C00030E016C0F901EE0FFF1FC901880F991F15
:1007D000880F991F880F991FE80FF91FE657FE4FE2
:1007E0001182108213821282118610862F5F3F4F72
:1007F0002A3031053CF30895809180019091810168
:10080000892B81F4E0E8F1E081E090E09583848336
:10081000209166003091670037832683918380831F
:10082000118610860895AF92BF92CF92DF92EF9219
:10083000FF920F931F93CF93DF93CDB7DEB76097EF
:100840000FB6F894DEBF0FBECDBF6091AE007091C1
:10085000AF00072E000C880B990B0E94720C9E01B2
:100860002F5F3F4F5901890120E041E00E94D50CE4
:1008700061E081E00E94EB0288E690E00E94840340
:10088000F50101900020E9F731976894CC24C5F870
:10089000DC2CD182C0826894EE24E5F8F12CF3823E
:1008A000E28267E081E00E94EB02C5010E948403BE
:1008B0005E0139E0A30EB11C60916200709163008B
:1008C000072E000C880B990B0E94720C850120E00A
:1008D00041E00E94D50C61E082E00E94EB0280E7DB
:1008E00090E00E94840368E082E00E94EB02F50140
:1008F00001900020E9F73197D182C082F382E28231
:10090000C5010E94840360960FB6F894DEBF0FBE47
:10091000CDBFDF91CF911F910F91FF90EF90DF90AE
:10092000CF90BF90AF90089580E090E011C0FC019F
:10093000EE0FFF1FEE0FFF1FEC54FF4F20813181A0
:100940004281FC01E458FF4F40833087208B0196A1
:100950008830910564F380E090E012C0FC01389685
:10096000EE0FFF1FEE0FFF1FEC54FF4F2081318170
:100970004281FC01E458FF4F408F30A320A701962D
:10098000883091055CF3089580916600909167002E
:10099000FC013197EE0FFF1FEE0FFF1FEC54FF4FCE
:1009A00040815181628173816F77772740835183C2
:1009B00062837383FC01EE0FFF1FEE0FFF1FEC54E9
:1009C000FF4F40815181628173816F73772740832C
:1009D000518362837383FC013196EE0FFF1FEE0F8C
:1009E000FF1FEC54FF4F80819181A281B381AF77CB
:1009F000BB2780839183A283B3830895809166008F
:100A000090916700FC013197EE0FFF1FEE0FFF1F63
:100A1000EC54FF4F40815181628173816068408353
:100A2000518362837383FC01EE0FFF1FEE0FFF1FE4
:100A3000EC54FF4F4081518162817381606C40832F
:100A4000518362837383FC013196EE0FFF1FEE0F1B
:100A5000FF1FEC54FF4F80819181A281B381A06878
:100A600080839183A283B38308958091AC00909199
:100A7000AD00880F991FFC01EE0FFF1FEE0FFF1F47
:100A8000EE0FFF1FE81BF90BEC50FF4F868197819B
:100A9000FC013297EE0FFF1FEE0FFF1FEC54FF4FCC
:100AA00040815181628173814C7F772740835183DC
:100AB00062837383FC013197EE0FFF1FEE0FFF1F60
:100AC000EC54FF4F40815181628173814E7F7727C3
:100AD0004083518362837383FC01EE0FFF1FEE0F8F
:100AE000FF1FEC54FF4F40815181628173814C7F25
:100AF00077274083518362837383FC013196EE0F25
:100B0000FF1FEE0FFF1FEC54FF4F408151816281A8
:100B100073814E7F77274083518362837383FC0107
:100B20003296EE0FFF1FEE0FFF1FEC54FF4F808138
:100B30009181A281B3818C7FBB2780839183A28323
:100B4000B38308958091AC009091AD00880F991FF8
:100B5000FC01EE0FFF1FEE0FFF1FEE0FFF1FE81B44
:100B6000F90BEC50FF4F86819781FC013297EE0F15
:100B7000FF1FEE0FFF1FEC54FF4F40815181628138
:100B8000738143604083518362837383FC01319797
:100B9000EE0FFF1FEE0FFF1FEC54FF4F40815181FE
:100BA0006281738141604083518362837383FC015E
:100BB000EE0FFF1FEE0FFF1FEC54FF4F40815181DE
:100BC0006281738143604083518362837383FC013C
:100BD0003196EE0FFF1FEE0FFF1FEC54FF4F4081C9
:100BE0005181628173814160408351836283738349
:100BF000FC013296EE0FFF1FEE0FFF1FEC54FF4F6C
:100C000080819181A281B381836080839183A2835B
:100C1000B38308950E9435052091B0003091B10052
:100C20002F5F3F4F3093B1002093B0008091AC0014
:100C30009091AD00AC01440F551FFA01EE0FFF1F5C
:100C4000EE0FFF1FEE0FFF1FE41BF50BEC50FF4FE5
:100C5000468157814230510589F4AC01440F551F3C
:100C6000FA01EE0FFF1FEE0FFF1FEE0FFF1FE41B39
:100C7000F50BEC50FF4F1186108615C04D30510515
:100C800091F4AC01440F551FFA01EE0FFF1FEE0F58
:100C9000FF1FEE0FFF1FE41BF50BEC50FF4F41E071
:100CA00050E051874087AC01440F551FFA01EE0F09
:100CB000FF1FEE0FFF1FEE0FFF1FE41BF50BEC50A5
:100CC000FF4F4485558524173507D9F51092B1009B
:100CD0001092B0009C01220F331FF901EE0FFF1F8D
:100CE000EE0FFF1FEE0FFF1FE21BF30BEC50FF4F49
:100CF00020853185232B99F0880F991FFC01EE0F79
:100D0000FF1FEE0FFF1FEE0FFF1FE81BF90BEC504C
:100D1000FF4F8681978101979783868312C0880F42
:100D2000991FFC01EE0FFF1FEE0FFF1FEE0FFF1FBD
:100D3000E81BF90BEC50FF4F868197810196978352
:100D400086830E94A20508958F929F92AF92BF92D0
:100D5000CF92DF92EF92FF920F931F93CF93DF9387
:100D6000C0E0D0E0D4C1CE01880F991F880F991F31
:100D7000880F991FFE01EE0FFF1FE80FF91FE657BE
:100D8000FE4F80819181892B09F431C1CE01880FFA
:100D9000991F880F991F880F991FFE01EE0FFF1FE3
:100DA000E80FF91FE657FE4F8481958101979583DF
:100DB000848381309105B9F49E01220F331F220FE5
:100DC000331F220F331FFE01EE0FFF1FE20FF31F31
:100DD000E657FE4F468157812091660030916700AB
:100DE0004217530709F1892B09F056C0CE01880F2D
:100DF000991F880F991F880F991FFE01EE0FFF1F83
:100E0000E80FF91FE657FE4F268137818091660073
:100E100090916700AC01415051092417350721F02A
:100E2000019628173907C1F5CE01880F991F880F41
:100E3000991F880F991FFE01EE0FFF1FE80FF91F82
:100E4000E657FE4F81E090E09383828380916200B9
:100E5000909163002091600030916100821B930BA0
:100E6000909363008093620085B3826085BB83ECBE
:100E700099E00197F1F700C0000085B38D7F85BB35
:100E80000E9413048091620090916300892B21F4E9
:100E90001092650010926400CE01880F991F880F90
:100EA000991F880F991FFE01EE0FFF1FE80FF91F12
:100EB000E657FE4F84819581992394F09E01220F7D
:100EC000331F220F331F220F331FFE01EE0FFF1FB0
:100ED000E20FF31FE657FE4F22813381232BF1F1FE
:100EE0009E01220F331F220F331F220F331FFE01DB
:100EF000EE0FFF1FE20FF31FE657FE4F1182108225
:100F00001382128225E030E0318720879C012F5F19
:100F10003F4F80E090E0A0ECB0E004C0B595A7950D
:100F2000979587952A95D2F780959095A095B0953D
:100F30000680F781E02DEE0FFF1FEE0FFF1FEC5430
:100F4000FF4F408151816281738184239523A623C1
:100F5000B72380839183A283B383D8C09C012F5F82
:100F60003F4F40E050E060EC70E06A017B0104C05C
:100F7000F594E794D794C7942A95D2F74601570180
:100F800080949094A094B0949E01220F331F220F5E
:100F9000331F220F331FFE01EE0FFF1FE20FF31F5F
:100FA000E657FE4F0680F781E02DEE0FFF1FEE0F94
:100FB000FF1FEC54FF4FC080D180E280F380950189
:100FC00084010C211D212E213F2104C075956795B8
:100FD000579547958A95D2F7D901C801842B952B4F
:100FE000A62BB72B80839183A283B3838FC0CE01BE
:100FF000880F991F880F991F880F991FFE01EE0F08
:10100000FF1FE80FF91FE657FE4F80859185009777
:1010100009F06BC08091AC009091AD009C01220F53
:10102000331FF901EE0FFF1FEE0FFF1FEE0FFF1F23
:10103000E21BF30BEC50FF4F228533852115310560
:1010400091F0880F991FFC01EE0FFF1FEE0FFF1F9D
:10105000EE0FFF1FE81BF90BEC50FF4F2150310939
:101060003387228753C09E01220F331F220F331F65
:10107000220F331FFE01EE0FFF1FE20FF31FE65793
:10108000FE4F25E130E035832483880F991FDC0172
:10109000AA0FBB1FAA0FBB1FAA0FBB1FA81BB90B10
:1010A000AC50BF4F16968D919C911797978386836E
:1010B00021E030E03183208311861086FC01EE0FA1
:1010C000FF1FEE0FFF1FEC54FF4F408151816281E3
:1010D0007381466040835183628373838AE090E02A
:1010E0001B969C938E931A9711C09E01220F331F5B
:1010F000220F331F220F331FFE01EE0FFF1FE20FDF
:10110000F31FE657FE4F0197918780872196C530E0
:10111000D1050CF428CEDF91CF911F910F91FF9054
:10112000EF90DF90CF90BF90AF909F908F900895F9
:10113000CF92DF92EF92FF920F931F93E0E8F1E0DE
:10114000848195810196958384838631910511F57B
:1011500040918601509187012091AC003091AD0003
:10116000220F331FF901EE0FFF1FEE0FFF1FEE0FCF
:10117000FF1FE21BF30BEC50FF4F26813781B901B3
:10118000615071094617570769F12F5F3F4F4217AA
:10119000530741F1459709F084C0209186013091B1
:1011A00087018091AC009091AD00880F991FFC01E0
:1011B000EE0FFF1FEE0FFF1FEE0FFF1FE81BF90BD7
:1011C000EC50FF4F868197812817390759F0AC0101
:1011D000425051092417350729F00296281739077C
:1011E00009F05FC081E090E09093830180938201D9
:1011F0008091AC009091AD00880F991FFC01EE0F1B
:10120000FF1FEE0FFF1FEE0FFF1FE81BF90BEC5047
:10121000FF4F808191812091AE003091AF00280F67
:10122000391F3093AF002093AE00059765E070E062
:101230000E94AD0C20E030E014C085B3816085BB16
:1012400083EC99E00197F1F700C0000085B38E7F31
:1012500085BB83EC99E00197F1F700C000002F5F98
:101260003F4F261737074CF30E9413048091AC00C0
:101270009091AD00880F991FFC01EE0FFF1FEE0F3C
:10128000FF1FEE0FFF1FE81BF90BEC50FF4F84818F
:101290009581C297958384831816190614F00E94CD
:1012A000350520918401309185012731310534F4D1
:1012B0008091820190918301892B89F1E0E8F1E02E
:1012C000118210821382128285E090E091878087DC
:1012D0002150310980E090E0A0ECB0E004C0B59569
:1012E000A795979587952A95D2F780959095A09583
:1012F000B0950680F781E02DEE0FFF1FEE0FFF1F68
:10130000EC54FF4F40815181628173818423952386
:10131000A623B72380839183A283B38336C0C901F8
:10132000019740E050E060EC70E07A018B0104C06E
:1013300015950795F794E7948A95D2F7D801C701D8
:1013400080959095A095B095E0918601F0918701E8
:10135000EE0FFF1FEE0FFF1FEC54FF4FC080D18038
:10136000E280F3808C219D21AE21BF2104C07595C0
:101370006795579547952A95D2F7842B952BA62BE1
:10138000B72B80839183A283B3831F910F91FF902A
:10139000EF90DF90CF900895CF93DF939C018091E1
:1013A000B2009091B30001969093B3008093B20085
:1013B00065E070E00E94AD0C892B71F5E901109297
:1013C000B3001092B2000E94C404C130D10589F468
:1013D00080916600909167000197909367008093D9
:1013E0006600029734F481E090E090936700809368
:1013F0006600CD2B89F4809166009091670001967C
:1014000090936700809366000C9734F08CE090E036
:101410009093670080936600DF91CF910895E4EB8D
:10142000F0E08CEB99E9A1E7B0E080839183A2839F
:10143000B38380EA96E5A2E8B0E084839583A6832F
:10144000B78380879187A287B3878CEB90E5A2E86A
:10145000B0E084879587A687B78780EA90EDABE9EF
:10146000B0E0808B918BA28BB38B80EA90E5AAE8E9
:10147000B0E0848B958BA68BB78B8CEB90E5AAE7BD
:10148000B0E0808F918FA28FB38F80E890E0A0E0D2
:10149000B0E0848F958FA68FB78F88E79FE2A2E791
:1014A000B0E080A391A3A2A3B3A384E498E2AAE846
:1014B000B0E084A395A3A6A3B7A380A791A7A2A7F2
:1014C000B3A788E79FE2AAE8B0E084A795A7A6A7FC
:1014D000B7A780E698E2AAE8B0E080AB91ABA2ABF8
:1014E000B3AB80E598E2AAE8B0E084AB95ABA6ABDD
:1014F000B7AB88E498E4A9E8B0E080AF91AFA2AFC1
:10150000B3AF84E49FE8A0E7B0E084AF95AFA6AFA7
:10151000B7AF08954F925F926F927F928F929F9292
:10152000AF92BF92CF92DF92EF92FF920F931F93F1
:10153000E4EBF0E0108211821282138280E090E0EE
:10154000ACE0B0E084839583A683B78340E050E0AD
:1015500066E070E0408751876287738700E010E0A3
:1015600023E030E00487158726873787C12CD12CEC
:1015700076016894D7F8E394C08AD18AE28AF38A24
:101580000F2E812CF0EC9F2EA12CB12CF02D848AF3
:10159000958AA68AB78A0F2E412CF0E65F2E612C21
:1015A000712CF02D408E518E628E738E80E090E310
:1015B000A0E0B0E0848F958FA68FB78F40A251A294
:1015C00062A273A284A295A2A6A2B7A2C0A6D1A627
:1015D000E2A6F3A604A715A726A737A740AB51ABF1
:1015E00062AB73AB80E090E0ACE0B0E084AB95AB75
:1015F000A6ABB7AB80E090E0A8E1B0E080AF91AFE0
:10160000A2AFB3AF14AE15AE16AE17AE1F910F91C9
:10161000FF90EF90DF90CF90BF90AF909F908F9012
:101620007F906F905F904F900895E4EBF0E08FEF24
:101630009FEFAFEFB0E080839183A283B383848375
:101640009583A683B78380879187A287B387848792
:101650009587A687B787808B918BA28BB38B848B62
:10166000958BA68BB78B808F918FA28FB38F848F32
:10167000958FA68FB78F80A391A3A2A3B3A384A3B2
:1016800095A3A6A3B7A380A791A7A2A7B3A784A752
:1016900095A7A6A7B7A780AB91ABA2ABB3AB84AB22
:1016A00095ABA6ABB7AB80AF91AFA2AFB3AF84AFF2
:1016B00095AFA6AFB7AF0895E4EBF0E010821182CA
:1016C0001282138214821582168217821086118666
:1016D000128613861486158616861786108A118A36
:1016E000128A138A148A158A168A178A108E118E06
:1016F000128E138E148E158E168E178E10A211A2B6
:1017000012A213A214A215A216A217A210A611A625
:1017100012A613A614A615A616A617A610AA11AAF5
:1017200012AA13AA14AA15AA16AA17AA10AE11AEC5
:1017300012AE13AE14AE15AE16AE17AE08958FEFFF
:1017400084BB87E08ABB17BA11BA81E08BBB0E94C9
:1017500009030E94130420E030E014C08BB38260C0
:101760008BBB8BB38D7F8BBB8BB384608BBB8BB3FD
:101770008B7F8BBB89EF90E00197F1F700C00000F1
:101780002F5F3F4F203331054CF30E94DF030E944F
:101790009A038091640090916500892B09F458C0E8
:1017A0000E94FE04CB9B04C081E090E00E94CC0923
:1017B000CC9B04C080E090E00E94CC09CD9B0E94AD
:1017C000FC038091800190918101892B11F00E948E
:1017D00098088091AC009091AD00880F991FFC0192
:1017E000EE0FFF1FEE0FFF1FEE0FFF1FE81BF90BA1
:1017F000EC50FF4F84819581181619062CF40E9435
:101800000A060E94A4062AC00E948A0A80917A00D1
:1018100090917B00889791F40E945C0B10927B0062
:1018200010927A008091AC009091AD000196909357
:10183000AD008093AC00099709F44DC080917A0007
:1018400090917B00019690937B0080937A0006C074
:101850000E94C4040E9435050E940F0A0E9494044D
:1018600040E050E034C04115510531F4009721F4B7
:101870002BB32E7F2BBB03C02BB321602BBB2BB311
:1018800022602BBB2BB32D7F2BBB2BB324602BBB38
:101890002BB32B7F2BBBFA01EE0FFF1FEE0FFF1FA9
:1018A000EE0FFF1FE458FF4FE80FF91F208128BB00
:1018B000E9EFF0E03197F1F700C00000019602C0B7
:1018C00080E090E08830910574F24F5F5F4F4630C2
:1018D0005105B4F35ECF0E94150B80E090E00895AF
:1018E000E89409C097FB3EF49095809570956195BA
:1018F0007F4F8F4F9F4F9923A9F0F92F96E9BB2770
:101900009395F695879577956795B795F111F8CFEB
:10191000FAF4BB0F11F460FF1BC06F5F7F4F8F4F56
:101920009F4F16C0882311F096E911C0772321F04C
:101930009EE8872F762F05C0662371F096E8862FE4
:1019400070E060E02AF09A95660F771F881FDAF73B
:10195000880F9695879597F9089597FB072E16F4AB
:10196000009407D077FD09D00E94C10C07FC05D078
:101970003EF4909581959F4F0895709561957F4FA6
:101980000895AA1BBB1B51E107C0AA1FBB1FA617C6
:10199000B70710F0A61BB70B881F991F5A95A9F718
:1019A00080959095BC01CD010895EF920F931F9300
:1019B000CF93DF93E80147FD02C034E001C034E17A
:1019C000042E000C550B57FF03C05195419551094A
:1019D000E32E022F242FAE010E94F50CCE01DF91E1
:1019E000CF911F910F91EF900895A9E0B0E0EBEF38
:1019F000FCE00C942D0F6A01122FB02E2BE3201760
:101A000020F0FF24F394F00E02C02CE3F22E0F2DF1
:101A100027E0AE014F5F5F4F0E944F0EBC0149812E
:101A2000842F8970813031F0E1FC06C0E0FE06C0F1
:101A300090E205C09DE203C09BE201C090E05E2DF4
:101A4000507143FF3CC0911102C083E001C084E0AB
:101A5000811718F4212F281B01C020E051110BC061
:101A6000F601822F30E2882319F031938150FBCFA9
:101A7000C20ED11C20E0992329F0D6019C93F601D7
:101A800031966F01C6010396E2FE0AC03EE4D6011C
:101A90003C9341E411964C93119712963C9306C0E7
:101AA0003EE6F601308341E641833283FC01322F6A
:101AB00040E2332309F442C041933150FACF42FF50
:101AC00044C0911102C083E001C084E0811718F482
:101AD000212F281B01C020E051110BC0F601822FDD
:101AE00030E2882319F031938150FBCFC20ED11C14
:101AF00020E0992329F0D6019C93F60131966F01DD
:101B0000C6010396E2FE0BC039E4D6013C933EE4E5
:101B100011963C93119736E412963C9307C039E630
:101B2000F60130833EE6318336E63283FC01322F04
:101B300040E2332319F041933150FBCFFC01E20F17
:101B4000F11D10828EEF9FEFA6C021E030E09111D1
:101B500002C020E030E0161617061CF4FB01319697
:101B600002C0E1E0F0E02E0F3F1FBB2021F0EB2D83
:101B7000F0E0319602C0E0E0F0E02E0F3F1FE12FD1
:101B8000F0E02E173F071CF4121B212F01C020E0AC
:101B90008E2D887159F4F601822F30E2882319F0D6
:101BA00031938150FBCFC20ED11C20E0992329F044
:101BB000D6019C93F60131966F0151110BC0F601CD
:101BC000822F90E3882319F091938150FBCFC20EAE
:101BD000D11C20E00F2D060F9A81342F307144FF65
:101BE00003C0913309F40150101624F4093018F0A1
:101BF00008E001C001E0AB0177FF02C040E050E027
:101C0000FB01E41BF50BA1E0B0E0AC0FBD1FEA0F38
:101C1000FB1F8EE2A82E4B01801A91080B2D10E0BD
:101C20001195019511094F3FBFEF5B0721F4D601D4
:101C3000AC9211966D01641775072CF08416950609
:101C400014F4818101C080E3415051093196D601DD
:101C500011967D014017510724F0D6018C9367013E
:101C6000E2CF6417750739F4963320F4953319F4ED
:101C7000311101C081E3F6018083F701822F90E2E8
:101C8000882319F091938150FBCFF701E20FF11DEA
:101C9000108280E090E02996ECE00C94490F283007
:101CA00008F027E03327DA01990F311D87FD916095
:101CB00000966105710539F432602E5F3D9330E383
:101CC0002A95E1F708959F3F30F08038710561054E
:101CD00009F03C5F3C5F3D93913008F08068911DB6
:101CE000DF93CF931F930F93FF92EF92192F987F5B
:101CF0009695E92F96959695E90FFF27E255FF4FA8
:101D000099273327EE24FF24A701E70105900894C3
:101D1000079428F4360FE71EF81E491F511D660F61
:101D2000771F881F991F0694A1F70590079428F440
:101D3000E70EF81E491F561FC11D770F881F991FF8
:101D4000661F0694A1F70590079428F4F80E491F22
:101D5000561FC71FD11D880F991F661F771F069436
:101D6000A1F70590079420F4490F561FC71FD81FED
:101D7000990F661F771F881F0694A9F78491109505
:101D8000177041F0D695C79557954795F794E79406
:101D90001A95C1F7E4E5F0E0689415901591359136
:101DA0006591959105907FE27395E118F10A430BD7
:101DB000560BC90BD009C0F7E10CF11E431F561F8B
:101DC000C91FD01D7EF4703311F48A95E6CFE894D4
:101DD000015030F0080F0AF40027021708F4202FF2
:101DE0002395022F7A3328F079E37D932A95E9F73A
:101DF00010C07D932A9589F6069497956795379537
:101E000017951794E118F10A430B560BC90BD0092B
:101E100098F023957E9173957A3308F070E37C9364
:101E20002013B8F77E9170617D9330F0839571E354
:101E30007D9370E32A95E1F71124EF90FF900F91C5
:101E40001F91CF91DF91992787FD909508952F924B
:101E50003F924F925F926F927F928F929F92AF923A
:101E6000BF92CF92DF92EF92FF920F931F93CF9387
:101E7000DF93CDB7DEB7CA1BDB0B0FB6F894DEBF1E
:101E80000FBECDBF09942A88398848885F846E8444
:101E90007D848C849B84AA84B984C884DF80EE808E
:101EA000FD800C811B81AA81B981CE0FD11D0FB697
:101EB000F894DEBF0FBECDBFED010895F894FFCFBB
:101EC000010064000100010053636F72653A200055
:0A1ED0004865616C74683A20000058
:00000001FF
